{
  "contractName": "nsdp",
  "abi": [
    {
      "inputs": [],
      "name": "counter",
      "outputs": [
        {
          "internalType": "uint256",
          "name": "",
          "type": "uint256"
        }
      ],
      "stateMutability": "view",
      "type": "function",
      "constant": true
    },
    {
      "inputs": [
        {
          "internalType": "address",
          "name": "",
          "type": "address"
        }
      ],
      "name": "entities",
      "outputs": [
        {
          "internalType": "uint256",
          "name": "id",
          "type": "uint256"
        },
        {
          "internalType": "uint256",
          "name": "trust_value",
          "type": "uint256"
        },
        {
          "internalType": "bool",
          "name": "set",
          "type": "bool"
        }
      ],
      "stateMutability": "view",
      "type": "function",
      "constant": true
    },
    {
      "inputs": [],
      "name": "threshold",
      "outputs": [
        {
          "internalType": "uint256",
          "name": "",
          "type": "uint256"
        }
      ],
      "stateMutability": "view",
      "type": "function",
      "constant": true
    },
    {
      "inputs": [
        {
          "internalType": "address",
          "name": "_entity_address",
          "type": "address"
        },
        {
          "internalType": "uint256",
          "name": "_trust_value",
          "type": "uint256"
        }
      ],
      "name": "create_new_entity",
      "outputs": [],
      "stateMutability": "nonpayable",
      "type": "function"
    },
    {
      "inputs": [
        {
          "internalType": "address",
          "name": "_address",
          "type": "address"
        }
      ],
      "name": "make_decision",
      "outputs": [
        {
          "internalType": "bool",
          "name": "",
          "type": "bool"
        }
      ],
      "stateMutability": "view",
      "type": "function",
      "constant": true
    },
    {
      "inputs": [
        {
          "internalType": "uint256",
          "name": "_threshold",
          "type": "uint256"
        }
      ],
      "name": "update_threshold",
      "outputs": [],
      "stateMutability": "nonpayable",
      "type": "function"
    },
    {
      "inputs": [
        {
          "internalType": "address",
          "name": "_address",
          "type": "address"
        },
        {
          "internalType": "uint256",
          "name": "_trust_value",
          "type": "uint256"
        }
      ],
      "name": "update_trust_value",
      "outputs": [],
      "stateMutability": "nonpayable",
      "type": "function"
    },
    {
      "inputs": [
        {
          "internalType": "address",
          "name": "_address",
          "type": "address"
        }
      ],
      "name": "get_trust_value",
      "outputs": [
        {
          "internalType": "uint256",
          "name": "",
          "type": "uint256"
        }
      ],
      "stateMutability": "view",
      "type": "function",
      "constant": true
    }
  ],
  "bytecode": "0x608060405260008055600060015534801561001957600080fd5b50610729806100296000396000f3fe608060405234801561001057600080fd5b50600436106100885760003560e01c806361bc221a1161005b57806361bc221a146101295780637216f92e14610147578063ca9b474c14610163578063cb250a9e1461017f57610088565b80631cd229d11461008d5780631d8ee48a146100a957806324a8ada5146100db57806342cde4e81461010b575b600080fd5b6100a760048036038101906100a291906104ce565b6101af565b005b6100c360048036038101906100be919061050e565b6102f0565b6040516100d293929190610565565b60405180910390f35b6100f560048036038101906100f0919061050e565b610327565b604051610102919061059c565b60405180910390f35b610113610388565b60405161012091906105b7565b60405180910390f35b61013161038e565b60405161013e91906105b7565b60405180910390f35b610161600480360381019061015c91906104ce565b610394565b005b61017d600480360381019061017891906105d2565b6103df565b005b6101996004803603810190610194919061050e565b6103e9565b6040516101a691906105b7565b60405180910390f35b6000600260008473ffffffffffffffffffffffffffffffffffffffff1673ffffffffffffffffffffffffffffffffffffffff16815260200190815260200160002090508060020160009054906101000a900460ff1615610244576040517f08c379a000000000000000000000000000000000000000000000000000000000815260040161023b9061065c565b60405180910390fd5b6040518060600160405280600080815461025d906106ab565b919050819055815260200183815260200160011515815250600260008573ffffffffffffffffffffffffffffffffffffffff1673ffffffffffffffffffffffffffffffffffffffff168152602001908152602001600020600082015181600001556020820151816001015560408201518160020160006101000a81548160ff021916908315150217905550905050505050565b60026020528060005260406000206000915090508060000154908060010154908060020160009054906101000a900460ff16905083565b6000600154600260008473ffffffffffffffffffffffffffffffffffffffff1673ffffffffffffffffffffffffffffffffffffffff16815260200190815260200160002060010154101561037e5760009050610383565b600190505b919050565b60015481565b60005481565b80600260008473ffffffffffffffffffffffffffffffffffffffff1673ffffffffffffffffffffffffffffffffffffffff168152602001908152602001600020600101819055505050565b8060018190555050565b6000600260008373ffffffffffffffffffffffffffffffffffffffff1673ffffffffffffffffffffffffffffffffffffffff168152602001908152602001600020600101549050919050565b600080fd5b600073ffffffffffffffffffffffffffffffffffffffff82169050919050565b60006104658261043a565b9050919050565b6104758161045a565b811461048057600080fd5b50565b6000813590506104928161046c565b92915050565b6000819050919050565b6104ab81610498565b81146104b657600080fd5b50565b6000813590506104c8816104a2565b92915050565b600080604083850312156104e5576104e4610435565b5b60006104f385828601610483565b9250506020610504858286016104b9565b9150509250929050565b60006020828403121561052457610523610435565b5b600061053284828501610483565b91505092915050565b61054481610498565b82525050565b60008115159050919050565b61055f8161054a565b82525050565b600060608201905061057a600083018661053b565b610587602083018561053b565b6105946040830184610556565b949350505050565b60006020820190506105b16000830184610556565b92915050565b60006020820190506105cc600083018461053b565b92915050565b6000602082840312156105e8576105e7610435565b5b60006105f6848285016104b9565b91505092915050565b600082825260208201905092915050565b7f7573657220697320616c72656164792061646465640000000000000000000000600082015250565b60006106466015836105ff565b915061065182610610565b602082019050919050565b6000602082019050818103600083015261067581610639565b9050919050565b7f4e487b7100000000000000000000000000000000000000000000000000000000600052601160045260246000fd5b60006106b682610498565b91507fffffffffffffffffffffffffffffffffffffffffffffffffffffffffffffffff82036106e8576106e761067c565b5b60018201905091905056fea264697066735822122041c5a68951efada0e857990d1b6a9da55fb146226aad3c7bfb8a645e3c47d47264736f6c63430008110033",
  "immutableReferences": {},
  "source": "// SPDX-License-Identifier: MIT\npragma solidity >=0.4.22 <0.9.0;\n\n// all numbers in this contract are multiplied by 10**4 to support decimal numbers precision\n// e.g. 5000 => 0.5\n\ncontract nsdp {\n\n    struct Entity {\n        uint256 id;\n        uint256 trust_value;\n        bool set;\n    }\n    uint256 public counter = 0;\n    uint256 public threshold = 0;\n    mapping(address => Entity) public entities;\n\n    function create_new_entity(address _entity_address, uint256 _trust_value) public \n    {\n        //check if the entity is already created\n        Entity storage entity_pointer = entities[_entity_address]; //need storage to create a pointer\n        require(!entity_pointer.set, \"user is already added\");\n        //store the data\n        entities[_entity_address] = Entity(\n        {\n            id: ++counter,\n            //name: \"someone\",\n            trust_value: _trust_value,\n            set: true\n        }\n        );\n    }\n\n    //This function gets called from NSEP contract whenever it gets a request to access resources\n    function make_decision(address _address) external view returns(bool)\n    {\n        if (entities[_address].trust_value < threshold)\n            {\n                return false;\n            }\n        else\n            {\n                return true;\n            }\n    }\n\n    //This function update the threshold value\n    function update_threshold(uint256 _threshold) external \n    {\n        threshold = _threshold;\n    }\n\n    function update_trust_value(address _address, uint256 _trust_value) public\n    {\n        entities[_address].trust_value = _trust_value;\n    }\n\n    function get_trust_value(address _address) public view returns(uint256)\n    {\n        return entities[_address].trust_value;\n    }\n        \n}\n",
  "sourcePath": "/home/safwan/Documents/school_files/blockchain/smart-contract/projects/zta/contracts/nsdp.sol",
  "compiler": {
    "name": "solc",
    "version": "0.8.17+commit.8df45f5f.Emscripten.clang"
  },
  "schemaVersion": "3.4.10",
  "updatedAt": "2022-11-26T00:07:03.780Z",
  "networkType": "ethereum",
  "devdoc": {
    "kind": "dev",
    "methods": {},
    "version": 1
  },
  "userdoc": {
    "kind": "user",
    "methods": {},
    "version": 1
  }
}