{
  "contractName": "nsdp",
  "abi": [
    {
      "inputs": [
        {
          "internalType": "address",
          "name": "_address_nsep",
          "type": "address"
        }
      ],
      "stateMutability": "nonpayable",
      "type": "constructor"
    },
    {
      "inputs": [],
      "name": "call_getstring",
      "outputs": [
        {
          "internalType": "string",
          "name": "",
          "type": "string"
        }
      ],
      "stateMutability": "view",
      "type": "function",
      "constant": true
    },
    {
      "inputs": [
        {
          "internalType": "string",
          "name": "_string",
          "type": "string"
        }
      ],
      "name": "call_setsting",
      "outputs": [],
      "stateMutability": "nonpayable",
      "type": "function"
    },
    {
      "inputs": [],
      "name": "getString",
      "outputs": [
        {
          "internalType": "string",
          "name": "",
          "type": "string"
        }
      ],
      "stateMutability": "view",
      "type": "function",
      "constant": true
    }
  ],
  "bytecode": "0x60806040523480156200001157600080fd5b5060405162000b7b38038062000b7b8339818101604052810190620000379190620001be565b806000806101000a81548173ffffffffffffffffffffffffffffffffffffffff021916908373ffffffffffffffffffffffffffffffffffffffff1602179055506040518060400160405280600e81526020017f68656c6c6f20776f726c6420323200000000000000000000000000000000000081525060019081620000bd91906200046a565b5060008054906101000a900473ffffffffffffffffffffffffffffffffffffffff1673ffffffffffffffffffffffffffffffffffffffff1663e30081a0306040518263ffffffff1660e01b815260040162000119919062000562565b600060405180830381600087803b1580156200013457600080fd5b505af115801562000149573d6000803e3d6000fd5b50505050506200057f565b600080fd5b600073ffffffffffffffffffffffffffffffffffffffff82169050919050565b6000620001868262000159565b9050919050565b620001988162000179565b8114620001a457600080fd5b50565b600081519050620001b8816200018d565b92915050565b600060208284031215620001d757620001d662000154565b5b6000620001e784828501620001a7565b91505092915050565b600081519050919050565b7f4e487b7100000000000000000000000000000000000000000000000000000000600052604160045260246000fd5b7f4e487b7100000000000000000000000000000000000000000000000000000000600052602260045260246000fd5b600060028204905060018216806200027257607f821691505b6020821081036200028857620002876200022a565b5b50919050565b60008190508160005260206000209050919050565b60006020601f8301049050919050565b600082821b905092915050565b600060088302620002f27fffffffffffffffffffffffffffffffffffffffffffffffffffffffffffffffff82620002b3565b620002fe8683620002b3565b95508019841693508086168417925050509392505050565b6000819050919050565b6000819050919050565b60006200034b620003456200033f8462000316565b62000320565b62000316565b9050919050565b6000819050919050565b62000367836200032a565b6200037f620003768262000352565b848454620002c0565b825550505050565b600090565b6200039662000387565b620003a38184846200035c565b505050565b5b81811015620003cb57620003bf6000826200038c565b600181019050620003a9565b5050565b601f8211156200041a57620003e4816200028e565b620003ef84620002a3565b81016020851015620003ff578190505b620004176200040e85620002a3565b830182620003a8565b50505b505050565b600082821c905092915050565b60006200043f600019846008026200041f565b1980831691505092915050565b60006200045a83836200042c565b9150826002028217905092915050565b6200047582620001f0565b67ffffffffffffffff811115620004915762000490620001fb565b5b6200049d825462000259565b620004aa828285620003cf565b600060209050601f831160018114620004e25760008415620004cd578287015190505b620004d985826200044c565b86555062000549565b601f198416620004f2866200028e565b60005b828110156200051c57848901518255600182019150602085019450602081019050620004f5565b868310156200053c578489015162000538601f8916826200042c565b8355505b6001600288020188555050505b505050505050565b6200055c8162000179565b82525050565b600060208201905062000579600083018462000551565b92915050565b6105ec806200058f6000396000f3fe608060405234801561001057600080fd5b50600436106100415760003560e01c8063436ac0301461004657806389ea642f14610062578063ef94698814610080575b600080fd5b610060600480360381019061005b91906103b3565b61009e565b005b61006a61012c565b604051610077919061047b565b60405180910390f35b6100886101be565b604051610095919061047b565b60405180910390f35b60008054906101000a900473ffffffffffffffffffffffffffffffffffffffff1673ffffffffffffffffffffffffffffffffffffffff1663c9615770826040518263ffffffff1660e01b81526004016100f7919061047b565b600060405180830381600087803b15801561011157600080fd5b505af1158015610125573d6000803e3d6000fd5b5050505050565b60606001805461013b906104cc565b80601f0160208091040260200160405190810160405280929190818152602001828054610167906104cc565b80156101b45780601f10610189576101008083540402835291602001916101b4565b820191906000526020600020905b81548152906001019060200180831161019757829003601f168201915b5050505050905090565b606060008054906101000a900473ffffffffffffffffffffffffffffffffffffffff1673ffffffffffffffffffffffffffffffffffffffff166389ea642f6040518163ffffffff1660e01b8152600401600060405180830381865afa15801561022b573d6000803e3d6000fd5b505050506040513d6000823e3d601f19601f82011682018060405250810190610254919061056d565b905090565b6000604051905090565b600080fd5b600080fd5b600080fd5b600080fd5b6000601f19601f8301169050919050565b7f4e487b7100000000000000000000000000000000000000000000000000000000600052604160045260246000fd5b6102c082610277565b810181811067ffffffffffffffff821117156102df576102de610288565b5b80604052505050565b60006102f2610259565b90506102fe82826102b7565b919050565b600067ffffffffffffffff82111561031e5761031d610288565b5b61032782610277565b9050602081019050919050565b82818337600083830152505050565b600061035661035184610303565b6102e8565b90508281526020810184848401111561037257610371610272565b5b61037d848285610334565b509392505050565b600082601f83011261039a5761039961026d565b5b81356103aa848260208601610343565b91505092915050565b6000602082840312156103c9576103c8610263565b5b600082013567ffffffffffffffff8111156103e7576103e6610268565b5b6103f384828501610385565b91505092915050565b600081519050919050565b600082825260208201905092915050565b60005b8381101561043657808201518184015260208101905061041b565b60008484015250505050565b600061044d826103fc565b6104578185610407565b9350610467818560208601610418565b61047081610277565b840191505092915050565b600060208201905081810360008301526104958184610442565b905092915050565b7f4e487b7100000000000000000000000000000000000000000000000000000000600052602260045260246000fd5b600060028204905060018216806104e457607f821691505b6020821081036104f7576104f661049d565b5b50919050565b600061051061050b84610303565b6102e8565b90508281526020810184848401111561052c5761052b610272565b5b610537848285610418565b509392505050565b600082601f8301126105545761055361026d565b5b81516105648482602086016104fd565b91505092915050565b60006020828403121561058357610582610263565b5b600082015167ffffffffffffffff8111156105a1576105a0610268565b5b6105ad8482850161053f565b9150509291505056fea264697066735822122030600ad704df22c2827c1202e412d1e45b9e6b8a0198060927cb6dfbcbe75ce264736f6c63430008110033",
  "immutableReferences": {},
  "source": "// SPDX-License-Identifier: MIT\npragma solidity >=0.4.22 <0.9.0;\n\n\ninterface Insep {\n    function getString() external view returns (string memory);\n    function set_string(string memory _string) external;\n    function setAddress(address _address_nsdp) external;\n    }\n\ncontract nsdp {\n\n    address address_nsep;\n    string data;\n    constructor(address _address_nsep) {\n        address_nsep = _address_nsep;\n        data = \"hello world 22\";\n        Insep(address_nsep).setAddress(address(this));\n    }\n\n    function call_getstring() external view returns(string memory) {\n       // nsep pointer = nsep(address_nsep);\n        return Insep(address_nsep).getString();\n    }\n    function call_setsting(string memory _string) external {\n        Insep(address_nsep).set_string(_string);\n    }\n    function getString() public view returns(string memory) {\n        return data;\n    }\n}\n",
  "sourcePath": "/home/safwan/Documents/school_files/blockchain/smart-contract/projects/zta/contracts/nsdp.sol",
  "compiler": {
    "name": "solc",
    "version": "0.8.17+commit.8df45f5f.Emscripten.clang"
  },
  "schemaVersion": "3.4.10",
  "updatedAt": "2022-11-04T13:19:33.596Z",
  "networkType": "ethereum",
  "devdoc": {
    "kind": "dev",
    "methods": {},
    "version": 1
  },
  "userdoc": {
    "kind": "user",
    "methods": {},
    "version": 1
  }
}