{
  "contractName": "nsep",
  "abi": [
    {
      "inputs": [],
      "stateMutability": "nonpayable",
      "type": "constructor"
    },
    {
      "inputs": [],
      "name": "address_nsdp",
      "outputs": [
        {
          "internalType": "address",
          "name": "",
          "type": "address"
        }
      ],
      "stateMutability": "view",
      "type": "function",
      "constant": true
    },
    {
      "inputs": [
        {
          "internalType": "address",
          "name": "_address_nsdp",
          "type": "address"
        }
      ],
      "name": "setAddress",
      "outputs": [],
      "stateMutability": "nonpayable",
      "type": "function"
    },
    {
      "inputs": [],
      "name": "getString",
      "outputs": [
        {
          "internalType": "string",
          "name": "",
          "type": "string"
        }
      ],
      "stateMutability": "view",
      "type": "function",
      "constant": true
    },
    {
      "inputs": [
        {
          "internalType": "string",
          "name": "_string",
          "type": "string"
        }
      ],
      "name": "set_string",
      "outputs": [],
      "stateMutability": "nonpayable",
      "type": "function"
    },
    {
      "inputs": [],
      "name": "call_getstring22",
      "outputs": [
        {
          "internalType": "string",
          "name": "",
          "type": "string"
        }
      ],
      "stateMutability": "view",
      "type": "function",
      "constant": true
    }
  ],
  "bytecode": "0x60806040523480156200001157600080fd5b506040518060400160405280600b81526020017f68656c6c6f20776f726c6400000000000000000000000000000000000000000081525060009081620000589190620002d9565b50620003c0565b600081519050919050565b7f4e487b7100000000000000000000000000000000000000000000000000000000600052604160045260246000fd5b7f4e487b7100000000000000000000000000000000000000000000000000000000600052602260045260246000fd5b60006002820490506001821680620000e157607f821691505b602082108103620000f757620000f662000099565b5b50919050565b60008190508160005260206000209050919050565b60006020601f8301049050919050565b600082821b905092915050565b600060088302620001617fffffffffffffffffffffffffffffffffffffffffffffffffffffffffffffffff8262000122565b6200016d868362000122565b95508019841693508086168417925050509392505050565b6000819050919050565b6000819050919050565b6000620001ba620001b4620001ae8462000185565b6200018f565b62000185565b9050919050565b6000819050919050565b620001d68362000199565b620001ee620001e582620001c1565b8484546200012f565b825550505050565b600090565b62000205620001f6565b62000212818484620001cb565b505050565b5b818110156200023a576200022e600082620001fb565b60018101905062000218565b5050565b601f82111562000289576200025381620000fd565b6200025e8462000112565b810160208510156200026e578190505b620002866200027d8562000112565b83018262000217565b50505b505050565b600082821c905092915050565b6000620002ae600019846008026200028e565b1980831691505092915050565b6000620002c983836200029b565b9150826002028217905092915050565b620002e4826200005f565b67ffffffffffffffff8111156200030057620002ff6200006a565b5b6200030c8254620000c8565b620003198282856200023e565b600060209050601f8311600181146200035157600084156200033c578287015190505b620003488582620002bb565b865550620003b8565b601f1984166200036186620000fd565b60005b828110156200038b5784890151825560018201915060208501945060208101905062000364565b86831015620003ab5784890151620003a7601f8916826200029b565b8355505b6001600288020188555050505b505050505050565b61096a80620003d06000396000f3fe608060405234801561001057600080fd5b50600436106100575760003560e01c806389ea642f1461005c578063b9c5107b1461007a578063bd638d0414610098578063c9615770146100b6578063e30081a0146100d2575b600080fd5b6100646100ee565b604051610071919061032a565b60405180910390f35b610082610180565b60405161008f919061038d565b60405180910390f35b6100a06101a6565b6040516100ad919061032a565b60405180910390f35b6100d060048036038101906100cb91906104f1565b610243565b005b6100ec60048036038101906100e79190610566565b610256565b005b6060600080546100fd906105c2565b80601f0160208091040260200160405190810160405280929190818152602001828054610129906105c2565b80156101765780601f1061014b57610100808354040283529160200191610176565b820191906000526020600020905b81548152906001019060200180831161015957829003601f168201915b5050505050905090565b600160009054906101000a900473ffffffffffffffffffffffffffffffffffffffff1681565b6060600160009054906101000a900473ffffffffffffffffffffffffffffffffffffffff1673ffffffffffffffffffffffffffffffffffffffff166389ea642f6040518163ffffffff1660e01b8152600401600060405180830381865afa158015610215573d6000803e3d6000fd5b505050506040513d6000823e3d601f19601f8201168201806040525081019061023e9190610663565b905090565b80600090816102529190610862565b5050565b80600160006101000a81548173ffffffffffffffffffffffffffffffffffffffff021916908373ffffffffffffffffffffffffffffffffffffffff16021790555050565b600081519050919050565b600082825260208201905092915050565b60005b838110156102d45780820151818401526020810190506102b9565b60008484015250505050565b6000601f19601f8301169050919050565b60006102fc8261029a565b61030681856102a5565b93506103168185602086016102b6565b61031f816102e0565b840191505092915050565b6000602082019050818103600083015261034481846102f1565b905092915050565b600073ffffffffffffffffffffffffffffffffffffffff82169050919050565b60006103778261034c565b9050919050565b6103878161036c565b82525050565b60006020820190506103a2600083018461037e565b92915050565b6000604051905090565b600080fd5b600080fd5b600080fd5b600080fd5b7f4e487b7100000000000000000000000000000000000000000000000000000000600052604160045260246000fd5b6103fe826102e0565b810181811067ffffffffffffffff8211171561041d5761041c6103c6565b5b80604052505050565b60006104306103a8565b905061043c82826103f5565b919050565b600067ffffffffffffffff82111561045c5761045b6103c6565b5b610465826102e0565b9050602081019050919050565b82818337600083830152505050565b600061049461048f84610441565b610426565b9050828152602081018484840111156104b0576104af6103c1565b5b6104bb848285610472565b509392505050565b600082601f8301126104d8576104d76103bc565b5b81356104e8848260208601610481565b91505092915050565b600060208284031215610507576105066103b2565b5b600082013567ffffffffffffffff811115610525576105246103b7565b5b610531848285016104c3565b91505092915050565b6105438161036c565b811461054e57600080fd5b50565b6000813590506105608161053a565b92915050565b60006020828403121561057c5761057b6103b2565b5b600061058a84828501610551565b91505092915050565b7f4e487b7100000000000000000000000000000000000000000000000000000000600052602260045260246000fd5b600060028204905060018216806105da57607f821691505b6020821081036105ed576105ec610593565b5b50919050565b600061060661060184610441565b610426565b905082815260208101848484011115610622576106216103c1565b5b61062d8482856102b6565b509392505050565b600082601f83011261064a576106496103bc565b5b815161065a8482602086016105f3565b91505092915050565b600060208284031215610679576106786103b2565b5b600082015167ffffffffffffffff811115610697576106966103b7565b5b6106a384828501610635565b91505092915050565b60008190508160005260206000209050919050565b60006020601f8301049050919050565b600082821b905092915050565b60006008830261070e7fffffffffffffffffffffffffffffffffffffffffffffffffffffffffffffffff826106d1565b61071886836106d1565b95508019841693508086168417925050509392505050565b6000819050919050565b6000819050919050565b600061075f61075a61075584610730565b61073a565b610730565b9050919050565b6000819050919050565b61077983610744565b61078d61078582610766565b8484546106de565b825550505050565b600090565b6107a2610795565b6107ad818484610770565b505050565b5b818110156107d1576107c660008261079a565b6001810190506107b3565b5050565b601f821115610816576107e7816106ac565b6107f0846106c1565b810160208510156107ff578190505b61081361080b856106c1565b8301826107b2565b50505b505050565b600082821c905092915050565b60006108396000198460080261081b565b1980831691505092915050565b60006108528383610828565b9150826002028217905092915050565b61086b8261029a565b67ffffffffffffffff811115610884576108836103c6565b5b61088e82546105c2565b6108998282856107d5565b600060209050601f8311600181146108cc57600084156108ba578287015190505b6108c48582610846565b86555061092c565b601f1984166108da866106ac565b60005b82811015610902578489015182556001820191506020850194506020810190506108dd565b8683101561091f578489015161091b601f891682610828565b8355505b6001600288020188555050505b50505050505056fea26469706673582212209d7fc86b47259d57b21e4efbefc3bafc5c0a32da5ee6a27747a275f2ae00f79264736f6c63430008110033",
  "immutableReferences": {},
  "source": "// SPDX-License-Identifier: MIT\npragma solidity >=0.4.22 <0.9.0;\n\ninterface Insdp {\n    function getString() external view returns (string memory);\n    }\n\ncontract nsep {\n    string someData;\n    address public address_nsdp;\n    constructor() {\n        someData = \"hello world\";\n\n    }\n    function setAddress(address _address_nsdp) external{\n        address_nsdp = _address_nsdp;\n    }\n\n    function getString() public view returns(string memory) {\n        return someData;\n    }\n    function set_string(string memory _string) public {\n        someData = _string;\n    }\n\n    function call_getstring22() external view returns(string memory) {\n        return Insdp(address_nsdp).getString();\n    }\n    \n}\n",
  "sourcePath": "/home/safwan/Documents/school_files/blockchain/smart-contract/projects/zta/contracts/nsep.sol",
  "compiler": {
    "name": "solc",
    "version": "0.8.17+commit.8df45f5f.Emscripten.clang"
  },
  "schemaVersion": "3.4.10",
  "updatedAt": "2022-11-04T13:19:33.610Z",
  "networkType": "ethereum",
  "devdoc": {
    "kind": "dev",
    "methods": {},
    "version": 1
  },
  "userdoc": {
    "kind": "user",
    "methods": {},
    "version": 1
  }
}