{
  "contractName": "nsep",
  "abi": [
    {
      "inputs": [
        {
          "internalType": "address",
          "name": "_address_nsdp",
          "type": "address"
        }
      ],
      "stateMutability": "nonpayable",
      "type": "constructor"
    },
    {
      "inputs": [],
      "name": "address_nsdp",
      "outputs": [
        {
          "internalType": "address",
          "name": "",
          "type": "address"
        }
      ],
      "stateMutability": "view",
      "type": "function",
      "constant": true
    },
    {
      "inputs": [
        {
          "internalType": "address",
          "name": "_address",
          "type": "address"
        }
      ],
      "name": "permission_to_access",
      "outputs": [
        {
          "internalType": "bool",
          "name": "",
          "type": "bool"
        }
      ],
      "stateMutability": "view",
      "type": "function",
      "constant": true
    }
  ],
  "bytecode": "0x608060405234801561001057600080fd5b506040516103e73803806103e7833981810160405281019061003291906100db565b806000806101000a81548173ffffffffffffffffffffffffffffffffffffffff021916908373ffffffffffffffffffffffffffffffffffffffff16021790555050610108565b600080fd5b600073ffffffffffffffffffffffffffffffffffffffff82169050919050565b60006100a88261007d565b9050919050565b6100b88161009d565b81146100c357600080fd5b50565b6000815190506100d5816100af565b92915050565b6000602082840312156100f1576100f0610078565b5b60006100ff848285016100c6565b91505092915050565b6102d0806101176000396000f3fe608060405234801561001057600080fd5b50600436106100365760003560e01c8063a151ea621461003b578063b9c5107b1461006b575b600080fd5b610055600480360381019061005091906101b4565b610089565b60405161006291906101fc565b60405180910390f35b61007361012d565b6040516100809190610226565b60405180910390f35b60008060009054906101000a900473ffffffffffffffffffffffffffffffffffffffff1673ffffffffffffffffffffffffffffffffffffffff166324a8ada5836040518263ffffffff1660e01b81526004016100e59190610226565b602060405180830381865afa158015610102573d6000803e3d6000fd5b505050506040513d601f19601f82011682018060405250810190610126919061026d565b9050919050565b60008054906101000a900473ffffffffffffffffffffffffffffffffffffffff1681565b600080fd5b600073ffffffffffffffffffffffffffffffffffffffff82169050919050565b600061018182610156565b9050919050565b61019181610176565b811461019c57600080fd5b50565b6000813590506101ae81610188565b92915050565b6000602082840312156101ca576101c9610151565b5b60006101d88482850161019f565b91505092915050565b60008115159050919050565b6101f6816101e1565b82525050565b600060208201905061021160008301846101ed565b92915050565b61022081610176565b82525050565b600060208201905061023b6000830184610217565b92915050565b61024a816101e1565b811461025557600080fd5b50565b60008151905061026781610241565b92915050565b60006020828403121561028357610282610151565b5b600061029184828501610258565b9150509291505056fea2646970667358221220728d455466077fe8c12b65b89c1883ac0e77d6c838aa4fb32739f132d99d449964736f6c63430008110033",
  "immutableReferences": {},
  "source": "// SPDX-License-Identifier: MIT\npragma solidity >=0.4.22 <0.9.0;\n\n// create an interface for decision point contract\ninterface Insdp {\n    function make_decision(address _address) external view returns(bool);\n    }\n\ncontract nsep {\n    address public address_nsdp; // address of the decision contract\n\n    constructor(address _address_nsdp)\n    {\n        address_nsdp = _address_nsdp;\n    }\n\n//call nsdp function to make a decision\n    function permission_to_access(address _address) external view returns(bool)\n    {\n        return Insdp(address_nsdp).make_decision(_address);\n        \n    }\n    \n}\n",
  "sourcePath": "/home/safwan/Documents/school_files/blockchain/smart-contract/projects/zta/contracts/nsep.sol",
  "compiler": {
    "name": "solc",
    "version": "0.8.17+commit.8df45f5f.Emscripten.clang"
  },
  "schemaVersion": "3.4.10",
  "updatedAt": "2022-11-26T00:07:03.789Z",
  "networkType": "ethereum",
  "devdoc": {
    "kind": "dev",
    "methods": {},
    "version": 1
  },
  "userdoc": {
    "kind": "user",
    "methods": {},
    "version": 1
  }
}